{
  "contractName": "LoanMarketPlace",
  "abi": [
    {
      "anonymous": false,
      "inputs": [
        {
          "indexed": false,
          "internalType": "address",
          "name": "_from",
          "type": "address"
        },
        {
          "indexed": false,
          "internalType": "uint256",
          "name": "_id",
          "type": "uint256"
        },
        {
          "indexed": false,
          "internalType": "uint256",
          "name": "timestamp",
          "type": "uint256"
        }
      ],
      "name": "DeletedLoan",
      "type": "event"
    },
    {
      "anonymous": false,
      "inputs": [
        {
          "indexed": false,
          "internalType": "address",
          "name": "_from",
          "type": "address"
        },
        {
          "indexed": false,
          "internalType": "address",
          "name": "_to",
          "type": "address"
        },
        {
          "indexed": false,
          "internalType": "uint256",
          "name": "quantity",
          "type": "uint256"
        },
        {
          "indexed": false,
          "internalType": "uint256",
          "name": "periods",
          "type": "uint256"
        },
        {
          "indexed": false,
          "internalType": "uint256",
          "name": "timestamp",
          "type": "uint256"
        }
      ],
      "name": "LoanAgreement",
      "type": "event"
    },
    {
      "anonymous": false,
      "inputs": [
        {
          "indexed": false,
          "internalType": "address",
          "name": "_from",
          "type": "address"
        },
        {
          "indexed": false,
          "internalType": "uint256",
          "name": "_id",
          "type": "uint256"
        },
        {
          "indexed": false,
          "internalType": "uint256",
          "name": "_quantity",
          "type": "uint256"
        },
        {
          "indexed": false,
          "internalType": "uint256",
          "name": "periods",
          "type": "uint256"
        },
        {
          "indexed": false,
          "internalType": "uint256",
          "name": "interest",
          "type": "uint256"
        },
        {
          "indexed": false,
          "internalType": "string",
          "name": "dni",
          "type": "string"
        },
        {
          "indexed": false,
          "internalType": "string",
          "name": "reason",
          "type": "string"
        },
        {
          "indexed": false,
          "internalType": "uint256",
          "name": "timestamp",
          "type": "uint256"
        }
      ],
      "name": "PublishedLoan",
      "type": "event"
    },
    {
      "anonymous": false,
      "inputs": [
        {
          "indexed": false,
          "internalType": "address",
          "name": "_from",
          "type": "address"
        },
        {
          "indexed": false,
          "internalType": "address",
          "name": "_to",
          "type": "address"
        },
        {
          "indexed": false,
          "internalType": "uint256",
          "name": "timestamp",
          "type": "uint256"
        }
      ],
      "name": "QuotePayed",
      "type": "event"
    },
    {
      "inputs": [
        {
          "internalType": "uint256",
          "name": "",
          "type": "uint256"
        }
      ],
      "name": "Loans",
      "outputs": [
        {
          "internalType": "uint256",
          "name": "Id",
          "type": "uint256"
        },
        {
          "internalType": "address",
          "name": "Address",
          "type": "address"
        },
        {
          "internalType": "uint256",
          "name": "Quantity",
          "type": "uint256"
        },
        {
          "internalType": "uint256",
          "name": "Periods",
          "type": "uint256"
        },
        {
          "internalType": "uint256",
          "name": "Interest",
          "type": "uint256"
        },
        {
          "internalType": "string",
          "name": "Dni",
          "type": "string"
        },
        {
          "internalType": "string",
          "name": "Reason",
          "type": "string"
        },
        {
          "internalType": "bool",
          "name": "IsPaid",
          "type": "bool"
        },
        {
          "internalType": "uint256",
          "name": "PendingQuotes",
          "type": "uint256"
        },
        {
          "internalType": "address",
          "name": "BorrowerAddress",
          "type": "address"
        },
        {
          "internalType": "uint256",
          "name": "timestamp",
          "type": "uint256"
        }
      ],
      "stateMutability": "view",
      "type": "function",
      "constant": true
    },
    {
      "inputs": [],
      "name": "owner",
      "outputs": [
        {
          "internalType": "address",
          "name": "",
          "type": "address"
        }
      ],
      "stateMutability": "view",
      "type": "function",
      "constant": true
    },
    {
      "inputs": [
        {
          "internalType": "uint256",
          "name": "_quantity",
          "type": "uint256"
        },
        {
          "internalType": "uint256",
          "name": "_periods",
          "type": "uint256"
        },
        {
          "internalType": "uint256",
          "name": "_interest",
          "type": "uint256"
        },
        {
          "internalType": "string",
          "name": "_dni",
          "type": "string"
        },
        {
          "internalType": "string",
          "name": "_reason",
          "type": "string"
        }
      ],
      "name": "publishLoan",
      "outputs": [],
      "stateMutability": "nonpayable",
      "type": "function"
    },
    {
      "inputs": [
        {
          "internalType": "uint256",
          "name": "_id",
          "type": "uint256"
        }
      ],
      "name": "deleteLoan",
      "outputs": [],
      "stateMutability": "nonpayable",
      "type": "function"
    },
    {
      "inputs": [
        {
          "internalType": "uint256",
          "name": "_id",
          "type": "uint256"
        }
      ],
      "name": "signLoanContract",
      "outputs": [],
      "stateMutability": "payable",
      "type": "function",
      "payable": true
    },
    {
      "inputs": [
        {
          "internalType": "uint256",
          "name": "_id",
          "type": "uint256"
        }
      ],
      "name": "payQuote",
      "outputs": [],
      "stateMutability": "payable",
      "type": "function",
      "payable": true
    }
  ],
  "bytecode": "0x6080604052336000806101000a81548173ffffffffffffffffffffffffffffffffffffffff021916908373ffffffffffffffffffffffffffffffffffffffff160217905550600160025534801561005557600080fd5b50611329806100656000396000f3fe6080604052600436106100555760003560e01c8063107bf9c71461005a5780632fb1df85146100835780633c7dff0a146100ac57806389b279e7146100c85780638da5cb5b1461010f578063aba5aca01461013a575b600080fd5b34801561006657600080fd5b50610081600480360381019061007c9190610d49565b610156565b005b34801561008f57600080fd5b506100aa60048036038101906100a59190610dfc565b610378565b005b6100c660048036038101906100c19190610dfc565b61051c565b005b3480156100d457600080fd5b506100ef60048036038101906100ea9190610dfc565b6106b4565b6040516101069b9a99989796959493929190610f1c565b60405180910390f35b34801561011b57600080fd5b5061012461086b565b6040516101319190610fd5565b60405180910390f35b610154600480360381019061014f9190610dfc565b61088f565b005b60405180610160016040528060025481526020013373ffffffffffffffffffffffffffffffffffffffff1681526020018681526020018581526020018481526020018381526020018281526020016000151581526020018581526020013373ffffffffffffffffffffffffffffffffffffffff168152602001428152506001600060025481526020019081526020016000206000820151816000015560208201518160010160006101000a81548173ffffffffffffffffffffffffffffffffffffffff021916908373ffffffffffffffffffffffffffffffffffffffff16021790555060408201518160020155606082015181600301556080820151816004015560a0820151816005019080519060200190610273929190610ad6565b5060c0820151816006019080519060200190610290929190610ad6565b5060e08201518160070160006101000a81548160ff02191690831515021790555061010082015181600801556101208201518160090160006101000a81548173ffffffffffffffffffffffffffffffffffffffff021916908373ffffffffffffffffffffffffffffffffffffffff16021790555061014082015181600a01559050507f69037c000832bf7cada9432aaf1dd884afed266def30f4c689899f916a61268833600254878787878742604051610351989796959493929190610ff0565b60405180910390a16002600081548092919061036c906110ab565b91905055505050505050565b6001600082815260200190815260200160002060010160009054906101000a900473ffffffffffffffffffffffffffffffffffffffff1673ffffffffffffffffffffffffffffffffffffffff163373ffffffffffffffffffffffffffffffffffffffff161480156104105750600015156001600083815260200190815260200160002060070160009054906101000a900460ff161515145b1561051957600160008281526020019081526020016000206000808201600090556001820160006101000a81549073ffffffffffffffffffffffffffffffffffffffff02191690556002820160009055600382016000905560048201600090556005820160006104809190610b5c565b6006820160006104909190610b5c565b6007820160006101000a81549060ff021916905560088201600090556009820160006101000a81549073ffffffffffffffffffffffffffffffffffffffff0219169055600a82016000905550507f577f9a702dac260d7714c2d69f14d54e7bac5062d1a98adba0cfa2b1829630d5338242604051610510939291906110f3565b60405180910390a15b50565b600060016000838152602001908152602001600020600801541161053f57600080fd5b6001600082815260200190815260200160002060090160009054906101000a900473ffffffffffffffffffffffffffffffffffffffff1673ffffffffffffffffffffffffffffffffffffffff166108fc6001600084815260200190815260200160002060030154600160008581526020019081526020016000206004015460016000868152602001908152602001600020600201546105de919061112a565b6105e891906111af565b9081150290604051600060405180830381858888f19350505050158015610613573d6000803e3d6000fd5b5060016000828152602001908152602001600020600801600081548092919061063b906111e0565b91905055507f1360b3fcbd8975a90784a5cde421ccc0d19d22719abf4cac7143b0b7450170c8336001600084815260200190815260200160002060090160009054906101000a900473ffffffffffffffffffffffffffffffffffffffff16426040516106a993929190611209565b60405180910390a150565b60016020528060005260406000206000915090508060000154908060010160009054906101000a900473ffffffffffffffffffffffffffffffffffffffff16908060020154908060030154908060040154908060050180546107159061126f565b80601f01602080910402602001604051908101604052809291908181526020018280546107419061126f565b801561078e5780601f106107635761010080835404028352916020019161078e565b820191906000526020600020905b81548152906001019060200180831161077157829003601f168201915b5050505050908060060180546107a39061126f565b80601f01602080910402602001604051908101604052809291908181526020018280546107cf9061126f565b801561081c5780601f106107f15761010080835404028352916020019161081c565b820191906000526020600020905b8154815290600101906020018083116107ff57829003601f168201915b5050505050908060070160009054906101000a900460ff16908060080154908060090160009054906101000a900473ffffffffffffffffffffffffffffffffffffffff169080600a015490508b565b60008054906101000a900473ffffffffffffffffffffffffffffffffffffffff1681565b60016000828152602001908152602001600020600201543410156108b257600080fd5b6001600082815260200190815260200160002060010160009054906101000a900473ffffffffffffffffffffffffffffffffffffffff1673ffffffffffffffffffffffffffffffffffffffff163373ffffffffffffffffffffffffffffffffffffffff1614610ad357600180600083815260200190815260200160002060070160006101000a81548160ff0219169083151502179055506001600082815260200190815260200160002060010160009054906101000a900473ffffffffffffffffffffffffffffffffffffffff1673ffffffffffffffffffffffffffffffffffffffff166108fc60016000848152602001908152602001600020600201549081150290604051600060405180830381858888f193505050501580156109db573d6000803e3d6000fd5b50336001600083815260200190815260200160002060090160006101000a81548173ffffffffffffffffffffffffffffffffffffffff021916908373ffffffffffffffffffffffffffffffffffffffff1602179055507f861e7ed73b3405756fa97563728924984ef58e4d61cd90f88f3abdaff89199ee336001600084815260200190815260200160002060010160009054906101000a900473ffffffffffffffffffffffffffffffffffffffff166001600085815260200190815260200160002060020154600160008681526020019081526020016000206003015442604051610aca9594939291906112a0565b60405180910390a15b50565b828054610ae29061126f565b90600052602060002090601f016020900481019282610b045760008555610b4b565b82601f10610b1d57805160ff1916838001178555610b4b565b82800160010185558215610b4b579182015b82811115610b4a578251825591602001919060010190610b2f565b5b509050610b589190610b9c565b5090565b508054610b689061126f565b6000825580601f10610b7a5750610b99565b601f016020900490600052602060002090810190610b989190610b9c565b5b50565b5b80821115610bb5576000816000905550600101610b9d565b5090565b6000604051905090565b600080fd5b600080fd5b6000819050919050565b610be081610bcd565b8114610beb57600080fd5b50565b600081359050610bfd81610bd7565b92915050565b600080fd5b600080fd5b6000601f19601f8301169050919050565b7f4e487b7100000000000000000000000000000000000000000000000000000000600052604160045260246000fd5b610c5682610c0d565b810181811067ffffffffffffffff82111715610c7557610c74610c1e565b5b80604052505050565b6000610c88610bb9565b9050610c948282610c4d565b919050565b600067ffffffffffffffff821115610cb457610cb3610c1e565b5b610cbd82610c0d565b9050602081019050919050565b82818337600083830152505050565b6000610cec610ce784610c99565b610c7e565b905082815260208101848484011115610d0857610d07610c08565b5b610d13848285610cca565b509392505050565b600082601f830112610d3057610d2f610c03565b5b8135610d40848260208601610cd9565b91505092915050565b600080600080600060a08688031215610d6557610d64610bc3565b5b6000610d7388828901610bee565b9550506020610d8488828901610bee565b9450506040610d9588828901610bee565b935050606086013567ffffffffffffffff811115610db657610db5610bc8565b5b610dc288828901610d1b565b925050608086013567ffffffffffffffff811115610de357610de2610bc8565b5b610def88828901610d1b565b9150509295509295909350565b600060208284031215610e1257610e11610bc3565b5b6000610e2084828501610bee565b91505092915050565b610e3281610bcd565b82525050565b600073ffffffffffffffffffffffffffffffffffffffff82169050919050565b6000610e6382610e38565b9050919050565b610e7381610e58565b82525050565b600081519050919050565b600082825260208201905092915050565b60005b83811015610eb3578082015181840152602081019050610e98565b83811115610ec2576000848401525b50505050565b6000610ed382610e79565b610edd8185610e84565b9350610eed818560208601610e95565b610ef681610c0d565b840191505092915050565b60008115159050919050565b610f1681610f01565b82525050565b600061016082019050610f32600083018e610e29565b610f3f602083018d610e6a565b610f4c604083018c610e29565b610f59606083018b610e29565b610f66608083018a610e29565b81810360a0830152610f788189610ec8565b905081810360c0830152610f8c8188610ec8565b9050610f9b60e0830187610f0d565b610fa9610100830186610e29565b610fb7610120830185610e6a565b610fc5610140830184610e29565b9c9b505050505050505050505050565b6000602082019050610fea6000830184610e6a565b92915050565b600061010082019050611006600083018b610e6a565b611013602083018a610e29565b6110206040830189610e29565b61102d6060830188610e29565b61103a6080830187610e29565b81810360a083015261104c8186610ec8565b905081810360c08301526110608185610ec8565b905061106f60e0830184610e29565b9998505050505050505050565b7f4e487b7100000000000000000000000000000000000000000000000000000000600052601160045260246000fd5b60006110b682610bcd565b91507fffffffffffffffffffffffffffffffffffffffffffffffffffffffffffffffff82036110e8576110e761107c565b5b600182019050919050565b60006060820190506111086000830186610e6a565b6111156020830185610e29565b6111226040830184610e29565b949350505050565b600061113582610bcd565b915061114083610bcd565b9250827fffffffffffffffffffffffffffffffffffffffffffffffffffffffffffffffff038211156111755761117461107c565b5b828201905092915050565b7f4e487b7100000000000000000000000000000000000000000000000000000000600052601260045260246000fd5b60006111ba82610bcd565b91506111c583610bcd565b9250826111d5576111d4611180565b5b828204905092915050565b60006111eb82610bcd565b9150600082036111fe576111fd61107c565b5b600182039050919050565b600060608201905061121e6000830186610e6a565b61122b6020830185610e6a565b6112386040830184610e29565b949350505050565b7f4e487b7100000000000000000000000000000000000000000000000000000000600052602260045260246000fd5b6000600282049050600182168061128757607f821691505b60208210810361129a57611299611240565b5b50919050565b600060a0820190506112b56000830188610e6a565b6112c26020830187610e6a565b6112cf6040830186610e29565b6112dc6060830185610e29565b6112e96080830184610e29565b969550505050505056fea264697066735822122071cf55b4b416f3d45ea863fdd8e3fae897d341318176ffd2ea8a2eec859ebd8664736f6c634300080d0033",
  "immutableReferences": {},
  "source": "// SPDX-License-Identifier: MIT\r\npragma solidity >=0.4.22 <0.9.0;\r\n\r\ncontract LoanMarketPlace {\r\n\r\n  address public owner = msg.sender;\r\n  mapping (uint256 => Loan) public Loans;\r\n\r\n  uint LoanCounter=1;\r\n\r\n  event PublishedLoan(address _from, uint _id, uint _quantity,uint periods,uint interest, string dni, string reason, uint timestamp);\r\n  event DeletedLoan(address _from, uint _id, uint timestamp);\r\n  event LoanAgreement(address _from, address _to, uint quantity, uint periods, uint timestamp);\r\n  event QuotePayed(address _from, address _to, uint timestamp);\r\n\r\n  struct Loan{\r\n      uint256 Id;\r\n      address Address;\r\n      uint Quantity;\r\n      uint Periods;\r\n      uint Interest;\r\n      string Dni;\r\n      string Reason;\r\n      bool IsPaid;\r\n      uint PendingQuotes;\r\n      address BorrowerAddress;// Por defecto lo inicializo como el address del que publica, en el momento de acuerdo lo modifico\r\n      uint timestamp;\r\n  }\r\n\r\n  function publishLoan(uint  _quantity, uint  _periods, uint _interest, string memory _dni, string memory _reason) public{\r\n        Loans[LoanCounter]= Loan(LoanCounter,msg.sender, _quantity,_periods,_interest, _dni, _reason,false,_periods,msg.sender, block.timestamp);\r\n        emit PublishedLoan(msg.sender,LoanCounter,_quantity,_periods,_interest,_dni,_reason, block.timestamp);\r\n        LoanCounter++;\r\n  }\r\n\r\n  function deleteLoan(uint _id) public{\r\n    //Solo lo puede hacer el mismo que ha creado el prestamos\r\n    if (msg.sender==Loans[_id].Address && Loans[_id].IsPaid==false ){       \r\n        delete Loans[_id];\r\n        emit DeletedLoan(msg.sender, _id,block.timestamp);\r\n    }\r\n  }\r\n\r\n  function signLoanContract(uint _id) public  payable {\r\n    require(msg.value >= Loans[_id].Quantity);// No se si esta biem, quiero comprobar que el saldo de la cuenta local es suficiente para pagarle\r\n    if (msg.sender!=Loans[_id].Address){\r\n      Loans[_id].IsPaid=true;\r\n      payable(Loans[_id].Address).transfer(Loans[_id].Quantity);\r\n      Loans[_id].BorrowerAddress=msg.sender; //Modifico el address del prestador\r\n      emit LoanAgreement(msg.sender,Loans[_id].Address , Loans[_id].Quantity, Loans[_id].Periods,block.timestamp);\r\n    }\r\n  }\r\n\r\n  function  payQuote(uint _id) payable public{ // de alguna forma creo que podriamos crear una clase o struct que instanciemos en cada acuerdo y almacenemos los pagos.\r\n    require(Loans[_id].PendingQuotes>0);\r\n    payable(Loans[_id].BorrowerAddress).transfer((Loans[_id].Quantity+Loans[_id].Interest)/Loans[_id].Periods);\r\n    Loans[_id].PendingQuotes--;\r\n    emit QuotePayed( msg.sender, Loans[_id].BorrowerAddress , block.timestamp);\r\n  }\r\n\r\n}",
  "sourcePath": "C:\\Users\\Chen\\Desktop\\LoanMarketPlace\\contracts\\LoanMarketPlace.sol",
  "compiler": {
    "name": "solc",
    "version": "0.8.13+commit.abaa5c0e.Emscripten.clang"
  },
  "schemaVersion": "3.4.7",
  "updatedAt": "2022-05-07T10:36:22.827Z",
  "networkType": "ethereum",
  "devdoc": {
    "kind": "dev",
    "methods": {},
    "version": 1
  },
  "userdoc": {
    "kind": "user",
    "methods": {},
    "version": 1
  }
}